{
  "contractName": "Election",
  "abi": [
    {
      "inputs": [],
      "stateMutability": "nonpayable",
      "type": "constructor"
    },
    {
      "inputs": [],
      "name": "stage",
      "outputs": [
        {
          "internalType": "enum Election.Stage",
          "name": "",
          "type": "uint8"
        }
      ],
      "stateMutability": "view",
      "type": "function"
    },
    {
      "inputs": [
        {
          "internalType": "string",
          "name": "_name",
          "type": "string"
        }
      ],
      "name": "addCandidate",
      "outputs": [],
      "stateMutability": "nonpayable",
      "type": "function"
    },
    {
      "inputs": [],
      "name": "registerVoters",
      "outputs": [],
      "stateMutability": "nonpayable",
      "type": "function"
    },
    {
      "inputs": [],
      "name": "setStagetoVote",
      "outputs": [],
      "stateMutability": "nonpayable",
      "type": "function"
    },
    {
      "inputs": [
        {
          "internalType": "uint8",
          "name": "toCandidate",
          "type": "uint8"
        }
      ],
      "name": "vote",
      "outputs": [],
      "stateMutability": "nonpayable",
      "type": "function"
    },
    {
      "inputs": [],
      "name": "setStageToResults",
      "outputs": [],
      "stateMutability": "nonpayable",
      "type": "function"
    },
    {
      "inputs": [],
      "name": "winningCandidate",
      "outputs": [
        {
          "internalType": "uint256",
          "name": "_winningCandidate",
          "type": "uint256"
        }
      ],
      "stateMutability": "nonpayable",
      "type": "function"
    }
  ],
  "bytecode": "0x608060405234801561001057600080fd5b5060028054600160a060020a031916331760a060020a60ff021916905561085c8061003c6000396000f3fe608060405234801561001057600080fd5b506004361061009a576000357c010000000000000000000000000000000000000000000000000000000090048063b3f98adc11610078578063b3f98adc146100c4578063c040e6b8146100d7578063ca053a6d146100f5578063d28178d7146100fd5761009a565b8063462e91ec1461009f578063521278e5146100b4578063b1806048146100bc575b600080fd5b6100b26100ad366004610668565b610112565b005b6100b2610212565b6100b261028a565b6100b26100d2366004610712565b610342565b6100df610410565b6040516100ec919061073a565b60405180910390f35b6100b2610420565b6101056104d7565b6040516100ec919061079c565b60025473ffffffffffffffffffffffffffffffffffffffff16331461016c576040517f08c379a000000000000000000000000000000000000000000000000000000000815260040161016390610765565b60405180910390fd5b60006002805460a060020a900460ff169081111561019d5760e060020a634e487b7102600052602160045260246000fd5b146101a757600080fd5b604080518082019091528181526000602080830182905281546001810183559180528251805160029093027f290decd9548b62a8d60345a988386fc84ba6bc95484008f6362f93160ef3e563019261020292849201906105cf565b5060208201518160010155505050565b60006002805460a060020a900460ff16908111156102435760e060020a634e487b7102600052602160045260246000fd5b148015610268575060025473ffffffffffffffffffffffffffffffffffffffff163314155b61027157600080fd5b336000908152600160205260409020805460ff19169055565b60025473ffffffffffffffffffffffffffffffffffffffff1633146102db576040517f08c379a000000000000000000000000000000000000000000000000000000000815260040161016390610765565b60016002805460a060020a900460ff169081111561030c5760e060020a634e487b7102600052602160045260246000fd5b1461031657600080fd5b60028054819074ff0000000000000000000000000000000000000000191660a060020a825b0217905550565b60016002805460a060020a900460ff16908111156103735760e060020a634e487b7102600052602160045260246000fd5b14801561039057503360009081526001602052604090205460ff16155b61039957600080fd5b3360009081526001602081905260408220805460ff191690911761ff00191661010060ff851690810291909117909155815481106103ea5760e060020a634e487b7102600052603260045260246000fd5b600091825260208220600160029092020101805491610408836107e3565b919050555050565b60025460a060020a900460ff1681565b60025473ffffffffffffffffffffffffffffffffffffffff163314610471576040517f08c379a000000000000000000000000000000000000000000000000000000000815260040161016390610765565b60006002805460a060020a900460ff16908111156104a25760e060020a634e487b7102600052602160045260246000fd5b146104ac57600080fd5b600280546001919074ff0000000000000000000000000000000000000000191660a060020a8361033b565b6000600280805460a060020a900460ff16908111156105095760e060020a634e487b7102600052602160045260246000fd5b1461051357600080fd5b6000805b6000548110156105ac5781600082815481106105465760e060020a634e487b7102600052603260045260246000fd5b906000526020600020906002020160010154111561059a57600081815481106105825760e060020a634e487b7102600052603260045260246000fd5b90600052602060002090600202016001015491508092505b806105a4816107e3565b915050610517565b50506002805474ff00000000000000000000000000000000000000001916905590565b8280546105db906107a5565b90600052602060002090601f0160209004810192826105fd5760008555610643565b82601f1061061657805160ff1916838001178555610643565b82800160010185558215610643579182015b82811115610643578251825591602001919060010190610628565b5061064f929150610653565b5090565b5b8082111561064f5760008155600101610654565b600060208284031215610679578081fd5b813567ffffffffffffffff80821115610690578283fd5b818401915084601f8301126106a3578283fd5b8135818111156106b5576106b561080d565b604051601f8201601f19908116603f011681019083821181831017156106dd576106dd61080d565b816040528281528760208487010111156106f5578586fd5b826020860160208301379182016020019490945295945050505050565b600060208284031215610723578081fd5b813560ff81168114610733578182fd5b9392505050565b602081016003831061075f5760e060020a634e487b7102600052602160045260246000fd5b91905290565b60208082526011908201527f4163636573732052657374726963746564000000000000000000000000000000604082015260600190565b90815260200190565b6002810460018216806107b957607f821691505b602082108114156107dd5760e060020a634e487b7102600052602260045260246000fd5b50919050565b60006000198214156108065760e060020a634e487b710281526011600452602481fd5b5060010190565b60e060020a634e487b7102600052604160045260246000fdfea26469706673582212207eb743e6a0e106734c6b89df57db4bbb79de226d7b8157206b2bbe0b99e0113f64736f6c63430008010033",
  "immutableReferences": {},
  "source": "//\"SPDX-License-Identifier: Unlicensed\"\n\npragma solidity ^0.8.0;\n\ncontract Election {\n    \n    struct Candidate{\n        string name;\n        uint256 voteCount;\n    }\n     Candidate[] candidates;\n\n    struct Voter{\n        bool voted;\n        uint8 vote;\n    }\n    mapping(address => Voter) voters;\n\n    address owner;\n\n    enum Stage{Registration, Voting, Results}\n    Stage public stage;\n\n    modifier onlyOwner() {\n        require(msg.sender == owner, \"Access Restricted\");\n        _;\n    }\n\n    constructor (){\n        owner = msg.sender;\n        stage = Stage.Registration;\n    }\n\n    function addCandidate(string memory _name) public onlyOwner {\n        require(stage == Stage.Registration);\n        candidates.push(Candidate({\n            name: _name,\n            voteCount:0\n        }));\n    }\n\n    function registerVoters() public{\n        require(stage == Stage.Registration && (msg.sender != owner));\n        voters[msg.sender].voted = false;\n    }\n\n    function setStagetoVote() public onlyOwner(){\n        require(stage == Stage.Registration);\n        stage = Stage.Voting;\n    }\n\n    function vote(uint8 toCandidate) public {\n        require(stage == Stage.Voting && voters[msg.sender].voted == false);\n        voters[msg.sender].voted = true;\n        voters[msg.sender].vote = toCandidate;\n        candidates[toCandidate].voteCount ++;\n    }\n\n    function setStageToResults() public onlyOwner(){\n        require(stage == Stage.Voting);\n        stage = Stage.Results;\n    }\n\n    function winningCandidate() public returns(uint256 _winningCandidate){\n        require(stage == Stage.Results);\n        uint256 winVoteCount = 0;\n        for(uint i =0; i< candidates.length; i++){\n            if(candidates[i].voteCount > winVoteCount){\n                winVoteCount = candidates[i].voteCount;\n                _winningCandidate = i;\n            }\n        }\n        stage = Stage.Registration;\n    }\n\n}",
  "sourcePath": "/home/conbon/Documents/Election/contracts/Election.sol",
  "compiler": {
    "name": "solc",
    "version": "0.8.1+commit.df193b15.Emscripten.clang"
  },
  "schemaVersion": "3.4.1",
  "updatedAt": "2021-05-23T11:40:37.569Z",
  "devdoc": {
    "kind": "dev",
    "methods": {},
    "version": 1
  },
  "userdoc": {
    "kind": "user",
    "methods": {},
    "version": 1
  }
}